{
  "_format": "hh3-artifact-1",
  "contractName": "PriceTracker",
  "sourceName": "contracts/PriceTracker.sol",
  "abi": [
    {
      "anonymous": false,
      "inputs": [
        {
          "indexed": true,
          "internalType": "uint256",
          "name": "productId",
          "type": "uint256"
        },
        {
          "indexed": true,
          "internalType": "address",
          "name": "seller",
          "type": "address"
        },
        {
          "indexed": false,
          "internalType": "uint256",
          "name": "newPrice",
          "type": "uint256"
        },
        {
          "indexed": false,
          "internalType": "uint256",
          "name": "timestamp",
          "type": "uint256"
        }
      ],
      "name": "PriceUpdated",
      "type": "event"
    },
    {
      "anonymous": false,
      "inputs": [
        {
          "indexed": true,
          "internalType": "uint256",
          "name": "productId",
          "type": "uint256"
        },
        {
          "indexed": true,
          "internalType": "address",
          "name": "buyer",
          "type": "address"
        },
        {
          "indexed": false,
          "internalType": "uint256",
          "name": "timestamp",
          "type": "uint256"
        }
      ],
      "name": "ProductPurchased",
      "type": "event"
    },
    {
      "anonymous": false,
      "inputs": [
        {
          "indexed": true,
          "internalType": "uint256",
          "name": "productId",
          "type": "uint256"
        },
        {
          "indexed": true,
          "internalType": "address",
          "name": "seller",
          "type": "address"
        },
        {
          "indexed": false,
          "internalType": "string",
          "name": "name",
          "type": "string"
        },
        {
          "indexed": false,
          "internalType": "uint256",
          "name": "initialPrice",
          "type": "uint256"
        },
        {
          "indexed": false,
          "internalType": "uint256",
          "name": "warrantyMonths",
          "type": "uint256"
        },
        {
          "indexed": false,
          "internalType": "string",
          "name": "specs",
          "type": "string"
        },
        {
          "indexed": false,
          "internalType": "uint256",
          "name": "timestamp",
          "type": "uint256"
        }
      ],
      "name": "ProductRegistered",
      "type": "event"
    },
    {
      "anonymous": false,
      "inputs": [
        {
          "indexed": true,
          "internalType": "uint256",
          "name": "productId",
          "type": "uint256"
        },
        {
          "indexed": true,
          "internalType": "address",
          "name": "reviewer",
          "type": "address"
        },
        {
          "indexed": false,
          "internalType": "uint8",
          "name": "rating",
          "type": "uint8"
        },
        {
          "indexed": false,
          "internalType": "uint256",
          "name": "timestamp",
          "type": "uint256"
        }
      ],
      "name": "ReviewSubmitted",
      "type": "event"
    },
    {
      "anonymous": false,
      "inputs": [
        {
          "indexed": true,
          "internalType": "uint256",
          "name": "productId",
          "type": "uint256"
        },
        {
          "indexed": false,
          "internalType": "uint256",
          "name": "newStock",
          "type": "uint256"
        },
        {
          "indexed": false,
          "internalType": "bytes32",
          "name": "snapshotHash",
          "type": "bytes32"
        },
        {
          "indexed": false,
          "internalType": "uint256",
          "name": "timestamp",
          "type": "uint256"
        }
      ],
      "name": "StockSnapshotRecorded",
      "type": "event"
    },
    {
      "inputs": [],
      "name": "OFFICIAL_TARIFF_RATE_BPS",
      "outputs": [
        {
          "internalType": "uint256",
          "name": "",
          "type": "uint256"
        }
      ],
      "stateMutability": "view",
      "type": "function"
    },
    {
      "inputs": [
        {
          "internalType": "uint256",
          "name": "productId",
          "type": "uint256"
        },
        {
          "internalType": "uint8",
          "name": "rating",
          "type": "uint8"
        },
        {
          "internalType": "string",
          "name": "text",
          "type": "string"
        }
      ],
      "name": "addReview",
      "outputs": [],
      "stateMutability": "nonpayable",
      "type": "function"
    },
    {
      "inputs": [
        {
          "internalType": "uint256",
          "name": "productId",
          "type": "uint256"
        },
        {
          "internalType": "address",
          "name": "account",
          "type": "address"
        }
      ],
      "name": "canReview",
      "outputs": [
        {
          "internalType": "bool",
          "name": "",
          "type": "bool"
        }
      ],
      "stateMutability": "view",
      "type": "function"
    },
    {
      "inputs": [],
      "name": "getAllProductIds",
      "outputs": [
        {
          "internalType": "uint256[]",
          "name": "",
          "type": "uint256[]"
        }
      ],
      "stateMutability": "view",
      "type": "function"
    },
    {
      "inputs": [
        {
          "internalType": "uint256",
          "name": "productId",
          "type": "uint256"
        }
      ],
      "name": "getLatestPrice",
      "outputs": [
        {
          "internalType": "uint256",
          "name": "price",
          "type": "uint256"
        },
        {
          "internalType": "uint256",
          "name": "timestamp",
          "type": "uint256"
        }
      ],
      "stateMutability": "view",
      "type": "function"
    },
    {
      "inputs": [
        {
          "internalType": "uint256",
          "name": "productId",
          "type": "uint256"
        }
      ],
      "name": "getPriceHistory",
      "outputs": [
        {
          "internalType": "uint256[]",
          "name": "prices",
          "type": "uint256[]"
        },
        {
          "internalType": "uint256[]",
          "name": "timestamps",
          "type": "uint256[]"
        }
      ],
      "stateMutability": "view",
      "type": "function"
    },
    {
      "inputs": [
        {
          "internalType": "uint256",
          "name": "productId",
          "type": "uint256"
        }
      ],
      "name": "getProduct",
      "outputs": [
        {
          "components": [
            {
              "internalType": "uint256",
              "name": "id",
              "type": "uint256"
            },
            {
              "internalType": "string",
              "name": "name",
              "type": "string"
            },
            {
              "internalType": "string",
              "name": "description",
              "type": "string"
            },
            {
              "internalType": "address",
              "name": "seller",
              "type": "address"
            },
            {
              "internalType": "uint256",
              "name": "createdAt",
              "type": "uint256"
            },
            {
              "internalType": "uint256",
              "name": "warrantyMonths",
              "type": "uint256"
            },
            {
              "internalType": "string",
              "name": "specs",
              "type": "string"
            },
            {
              "internalType": "uint256",
              "name": "shippingFee",
              "type": "uint256"
            },
            {
              "internalType": "uint256",
              "name": "msrp",
              "type": "uint256"
            },
            {
              "internalType": "uint256",
              "name": "crossBorderFee",
              "type": "uint256"
            },
            {
              "internalType": "string",
              "name": "supplyChainBatchId",
              "type": "string"
            },
            {
              "internalType": "string",
              "name": "ipfsCertificateHash",
              "type": "string"
            },
            {
              "internalType": "uint256",
              "name": "currentStock",
              "type": "uint256"
            },
            {
              "internalType": "bytes32",
              "name": "stockSnapshotHash",
              "type": "bytes32"
            },
            {
              "internalType": "bool",
              "name": "exists",
              "type": "bool"
            }
          ],
          "internalType": "struct PriceTracker.Product",
          "name": "",
          "type": "tuple"
        }
      ],
      "stateMutability": "view",
      "type": "function"
    },
    {
      "inputs": [],
      "name": "getProductCount",
      "outputs": [
        {
          "internalType": "uint256",
          "name": "",
          "type": "uint256"
        }
      ],
      "stateMutability": "view",
      "type": "function"
    },
    {
      "inputs": [
        {
          "internalType": "address",
          "name": "seller",
          "type": "address"
        }
      ],
      "name": "getProductsBySeller",
      "outputs": [
        {
          "internalType": "uint256[]",
          "name": "",
          "type": "uint256[]"
        }
      ],
      "stateMutability": "view",
      "type": "function"
    },
    {
      "inputs": [
        {
          "internalType": "uint256",
          "name": "productId",
          "type": "uint256"
        }
      ],
      "name": "getPurchases",
      "outputs": [
        {
          "components": [
            {
              "internalType": "address",
              "name": "buyer",
              "type": "address"
            },
            {
              "internalType": "uint256",
              "name": "timestamp",
              "type": "uint256"
            }
          ],
          "internalType": "struct PriceTracker.Purchase[]",
          "name": "",
          "type": "tuple[]"
        }
      ],
      "stateMutability": "view",
      "type": "function"
    },
    {
      "inputs": [
        {
          "internalType": "uint256",
          "name": "productId",
          "type": "uint256"
        }
      ],
      "name": "getReviews",
      "outputs": [
        {
          "components": [
            {
              "internalType": "address",
              "name": "reviewer",
              "type": "address"
            },
            {
              "internalType": "uint8",
              "name": "rating",
              "type": "uint8"
            },
            {
              "internalType": "string",
              "name": "text",
              "type": "string"
            },
            {
              "internalType": "uint256",
              "name": "timestamp",
              "type": "uint256"
            }
          ],
          "internalType": "struct PriceTracker.Review[]",
          "name": "",
          "type": "tuple[]"
        }
      ],
      "stateMutability": "view",
      "type": "function"
    },
    {
      "inputs": [
        {
          "internalType": "uint256",
          "name": "productId",
          "type": "uint256"
        }
      ],
      "name": "purchaseProduct",
      "outputs": [],
      "stateMutability": "nonpayable",
      "type": "function"
    },
    {
      "inputs": [
        {
          "internalType": "uint256",
          "name": "productId",
          "type": "uint256"
        },
        {
          "internalType": "uint256",
          "name": "newStock",
          "type": "uint256"
        }
      ],
      "name": "recordStockSnapshot",
      "outputs": [],
      "stateMutability": "nonpayable",
      "type": "function"
    },
    {
      "inputs": [
        {
          "components": [
            {
              "internalType": "string",
              "name": "name",
              "type": "string"
            },
            {
              "internalType": "string",
              "name": "description",
              "type": "string"
            },
            {
              "internalType": "uint256",
              "name": "initialPrice",
              "type": "uint256"
            },
            {
              "internalType": "uint256",
              "name": "warrantyMonths",
              "type": "uint256"
            },
            {
              "internalType": "string",
              "name": "specs",
              "type": "string"
            },
            {
              "internalType": "uint256",
              "name": "shippingFee",
              "type": "uint256"
            },
            {
              "internalType": "uint256",
              "name": "msrp",
              "type": "uint256"
            },
            {
              "internalType": "uint256",
              "name": "crossBorderFee",
              "type": "uint256"
            },
            {
              "internalType": "string",
              "name": "supplyChainBatchId",
              "type": "string"
            },
            {
              "internalType": "string",
              "name": "ipfsCertificateHash",
              "type": "string"
            },
            {
              "internalType": "uint256",
              "name": "initialStock",
              "type": "uint256"
            }
          ],
          "internalType": "struct PriceTracker.RegisterProductParams",
          "name": "params",
          "type": "tuple"
        }
      ],
      "name": "registerProduct",
      "outputs": [
        {
          "internalType": "uint256",
          "name": "productId",
          "type": "uint256"
        }
      ],
      "stateMutability": "nonpayable",
      "type": "function"
    },
    {
      "inputs": [
        {
          "internalType": "uint256",
          "name": "productId",
          "type": "uint256"
        },
        {
          "internalType": "uint256",
          "name": "newPrice",
          "type": "uint256"
        }
      ],
      "name": "updatePrice",
      "outputs": [],
      "stateMutability": "nonpayable",
      "type": "function"
    }
  ],
  "bytecode": "0x608060405260015f553480156012575f5ffd5b50611d32806100205f395ff3fe608060405234801561000f575f5ffd5b50600436106100f0575f3560e01c80639d4a225511610093578063b9db15b411610063578063b9db15b414610202578063bacdafe014610222578063d19871b014610235578063fd1a98a514610248575f5ffd5b80639d4a22551461019e578063a99e707b146101be578063b5dffe61146101d1578063b94fe917146101da575f5ffd5b80634a348da9116100ce5780634a348da914610144578063663c01af146101565780636f629ed51461016b57806382367b2d1461018b575f5ffd5b806306d82eba146100f457806338e76a031461011c5780634909f98b14610131575b5f5ffd5b610107610102366004611619565b610269565b60405190151581526020015b60405180910390f35b61012f61012a366004611643565b6102d0565b005b61012f61013f36600461165a565b6103b7565b6006545b604051908152602001610113565b61015e6105ef565b604051610113919061171e565b61017e610179366004611643565b610645565b6040516101139190611737565b61012f61019936600461178e565b6106f6565b6101b16101ac366004611643565b61083e565b60405161011391906117dc565b61012f6101cc36600461178e565b61098c565b6101486105dc81565b6101ed6101e8366004611643565b610a8d565b60408051928352602083019190915201610113565b610215610210366004611643565b610b14565b6040516101139190611876565b61015e6102303660046119a2565b610f25565b6101486102433660046119bb565b610f8e565b61025b610256366004611643565b611495565b6040516101139291906119f3565b5f828152600160205260408120600e0154839060ff166102a45760405162461bcd60e51b815260040161029b90611a20565b60405180910390fd5b50505f9182526005602090815260408084206001600160a01b0393909316845291905290205460ff1690565b5f818152600160205260409020600e0154819060ff166103025760405162461bcd60e51b815260040161029b90611a20565b5f8281526003602090815260408083208151808301835233808252428286018181528454600180820187559589528789209451600290910290940180546001600160a01b0319166001600160a01b03909516949094178455519284019290925587865260058552838620818752855294839020805460ff1916909217909155905190815284917fa530f889d7f1bd9a73028e48944ca013ab2c6624a31e3fa26f923f4bb719abd5910160405180910390a35050565b5f848152600160205260409020600e0154849060ff166103e95760405162461bcd60e51b815260040161029b90611a20565b5f85815260056020908152604080832033845290915290205460ff166104665760405162461bcd60e51b815260206004820152602c60248201527f4f6e6c792076657269666965642070757263686173657273206d61792073756260448201526b6d697420612072657669657760a01b606482015260840161029b565b60018460ff161015801561047e575060058460ff1611155b6104ca5760405162461bcd60e51b815260206004820152601e60248201527f526174696e67206d757374206265206265747765656e203120616e6420350000604482015260640161029b565b60045f8681526020019081526020015f206040518060800160405280336001600160a01b031681526020018660ff16815260200185858080601f0160208091040260200160405190810160405280939291908181526020018383808284375f9201829052509385525050426020938401525083546001818101865594825290829020835160039092020180549284015160ff16600160a01b026001600160a81b03199093166001600160a01b03909216919091179190911781556040820151919290919082019061059b9082611ae2565b50606091909101516002909101556040805160ff86168152426020820152339187917f9b363df17e0721149640a1a4524b083c4fbb71317cdfb6b8aa35bb8ad730a85f910160405180910390a35050505050565b6060600680548060200260200160405190810160405280929190818152602001828054801561063b57602002820191905f5260205f20905b815481526020019060010190808311610627575b5050505050905090565b5f818152600160205260409020600e0154606090829060ff1661067a5760405162461bcd60e51b815260040161029b90611a20565b5f83815260036020908152604080832080548251818502810185019093528083529193909284015b828210156106e9575f848152602090819020604080518082019091526002850290910180546001600160a01b031682526001908101548284015290835290920191016106a2565b5050505091505b50919050565b5f828152600160205260409020600e0154829060ff166107285760405162461bcd60e51b815260040161029b90611a20565b5f8381526001602052604090206003015483906001600160a01b031633146107625760405162461bcd60e51b815260040161029b90611b9d565b5f83116107b15760405162461bcd60e51b815260206004820181905260248201527f4e6577207072696365206d7573742062652067726561746572207468616e2030604482015260640161029b565b5f84815260026020818152604080842081518083018352888152428185018181528354600181810186559489529590972091519490950201928355935191909301559051339186917f592a032e7884ba506196d55a5fc14b6dd3f8f1a70beaf433d32006136a5137589161083091889190918252602082015260400190565b60405180910390a350505050565b5f818152600160205260409020600e0154606090829060ff166108735760405162461bcd60e51b815260040161029b90611a20565b5f83815260046020908152604080832080548251818502810185019093528083529193909284015b828210156106e9575f848152602090819020604080516080810182526003860290920180546001600160a01b0381168452600160a01b900460ff1693830193909352600183018054929392918401916108f390611a64565b80601f016020809104026020016040519081016040528092919081815260200182805461091f90611a64565b801561096a5780601f106109415761010080835404028352916020019161096a565b820191905f5260205f20905b81548152906001019060200180831161094d57829003601f168201915b505050505081526020016002820154815250508152602001906001019061089b565b5f828152600160205260409020600e0154829060ff166109be5760405162461bcd60e51b815260040161029b90611a20565b5f8381526001602052604090206003015483906001600160a01b031633146109f85760405162461bcd60e51b815260040161029b90611b9d565b60408051602081018690529081018490524260608201525f9060800160408051808303601f1901815282825280516020918201205f89815260018352839020600c8101899055600d018190558784529083018190524291830191909152915085907f2229c740ce15c6ec119966c46040bc92350aed700830167c9f0507aabccd34999060600160405180910390a25050505050565b5f818152600160205260408120600e01548190839060ff16610ac15760405162461bcd60e51b815260040161029b90611a20565b5f84815260026020526040812080549091908290610ae190600190611c03565b81548110610af157610af1611c1c565b905f5260205f2090600202019050805f0154816001015494509450505050915091565b610b8e604051806101e001604052805f815260200160608152602001606081526020015f6001600160a01b031681526020015f81526020015f8152602001606081526020015f81526020015f81526020015f815260200160608152602001606081526020015f81526020015f81526020015f151581525090565b5f828152600160205260409020600e0154829060ff16610bc05760405162461bcd60e51b815260040161029b90611a20565b5f8381526001602081815260409283902083516101e0810190945280548452918201805491840191610bf190611a64565b80601f0160208091040260200160405190810160405280929190818152602001828054610c1d90611a64565b8015610c685780601f10610c3f57610100808354040283529160200191610c68565b820191905f5260205f20905b815481529060010190602001808311610c4b57829003601f168201915b50505050508152602001600282018054610c8190611a64565b80601f0160208091040260200160405190810160405280929190818152602001828054610cad90611a64565b8015610cf85780601f10610ccf57610100808354040283529160200191610cf8565b820191905f5260205f20905b815481529060010190602001808311610cdb57829003601f168201915b505050918352505060038201546001600160a01b031660208201526004820154604082015260058201546060820152600682018054608090920191610d3c90611a64565b80601f0160208091040260200160405190810160405280929190818152602001828054610d6890611a64565b8015610db35780601f10610d8a57610100808354040283529160200191610db3565b820191905f5260205f20905b815481529060010190602001808311610d9657829003601f168201915b50505050508152602001600782015481526020016008820154815260200160098201548152602001600a82018054610dea90611a64565b80601f0160208091040260200160405190810160405280929190818152602001828054610e1690611a64565b8015610e615780601f10610e3857610100808354040283529160200191610e61565b820191905f5260205f20905b815481529060010190602001808311610e4457829003601f168201915b50505050508152602001600b82018054610e7a90611a64565b80601f0160208091040260200160405190810160405280929190818152602001828054610ea690611a64565b8015610ef15780601f10610ec857610100808354040283529160200191610ef1565b820191905f5260205f20905b815481529060010190602001808311610ed457829003601f168201915b5050509183525050600c8201546020820152600d8201546040820152600e9091015460ff1615156060909101529392505050565b6001600160a01b0381165f90815260076020908152604091829020805483518184028101840190945280845260609392830182828015610f8257602002820191905f5260205f20905b815481526020019060010190808311610f6e575b50505050509050919050565b5f80610f9a8380611c30565b905011610fe95760405162461bcd60e51b815260206004820152601c60248201527f50726f64756374206e616d652063616e6e6f7420626520656d70747900000000604482015260640161029b565b5f8260400135116110485760405162461bcd60e51b8152602060048201526024808201527f496e697469616c207072696365206d75737420626520677265617465722074686044820152630616e20360e41b606482015260840161029b565b505f8054906001908061105b8385611c7a565b9091555050604080516020808201849052610140850135828401524260608084019190915283518084039091018152608083018085528151919092012061026083019093528381529060a0016110b18580611c30565b8080601f0160208091040260200160405190810160405280939291908181526020018383808284375f920191909152505050908252506020908101906110f990860186611c30565b8080601f0160208091040260200160405190810160405280939291908181526020018383808284375f920191909152505050908252503360208201524260408201526060858101359082015260809081019061115790860186611c30565b8080601f0160208091040260200160405190810160405280939291908181526020018383808284375f9201919091525050509082525060a0850135602082015260c0850135604082015260e085013560608201526080016111bc610100860186611c30565b8080601f0160208091040260200160405190810160405280939291908181526020018383808284375f92019190915250505090825250602001611203610120860186611c30565b8080601f0160208091040260200160405190810160405280939291908181526020018383808284375f920182905250938552505050610140860135602080840191909152604080840186905260016060909401849052868352838252909120835181559083015190918201906112799082611ae2565b506040820151600282019061128e9082611ae2565b5060608201516003820180546001600160a01b0319166001600160a01b039092169190911790556080820151600482015560a0820151600582015560c082015160068201906112dd9082611ae2565b5060e0820151600782015561010082015160088201556101208201516009820155610140820151600a8201906113139082611ae2565b50610160820151600b8201906113299082611ae2565b50610180820151600c8201556101a0820151600d8201556101c090910151600e909101805460ff19169115159190911790555f8281526002602081815260408084208151808301835288830135815242818501908152825460018181018555938852858820925196029091019485555193810193909355600680548085019091557ff652222313e28459528d920b65115c16c04f3efc82aaedc97be59f3f377c0d3f018690553380855260078352908420805493840181558452922001839055827f929107f08f10dcdae8bc8dee09df78356bec9a4761b0a7c5b3c818941975aa056114158680611c30565b6040880135606089013561142c60808b018b611c30565b426040516114409796959493929190611cb5565b60405180910390a3604080516101408501358152602081018390524281830152905183917f2229c740ce15c6ec119966c46040bc92350aed700830167c9f0507aabccd3499919081900360600190a250919050565b5f818152600160205260409020600e01546060908190839060ff166114cc5760405162461bcd60e51b815260040161029b90611a20565b5f84815260026020526040902080548067ffffffffffffffff8111156114f4576114f4611a50565b60405190808252806020026020018201604052801561151d578160200160208202803683370190505b5094508067ffffffffffffffff81111561153957611539611a50565b604051908082528060200260200182016040528015611562578160200160208202803683370190505b5093505f5b818110156115f55782818154811061158157611581611c1c565b905f5260205f2090600202015f01548682815181106115a2576115a2611c1c565b6020026020010181815250508281815481106115c0576115c0611c1c565b905f5260205f209060020201600101548582815181106115e2576115e2611c1c565b6020908102919091010152600101611567565b50505050915091565b80356001600160a01b0381168114611614575f5ffd5b919050565b5f5f6040838503121561162a575f5ffd5b8235915061163a602084016115fe565b90509250929050565b5f60208284031215611653575f5ffd5b5035919050565b5f5f5f5f6060858703121561166d575f5ffd5b84359350602085013560ff81168114611684575f5ffd5b9250604085013567ffffffffffffffff81111561169f575f5ffd5b8501601f810187136116af575f5ffd5b803567ffffffffffffffff8111156116c5575f5ffd5b8760208284010111156116d6575f5ffd5b949793965060200194505050565b5f8151808452602084019350602083015f5b828110156117145781518652602095860195909101906001016116f6565b5093949350505050565b602081525f61173060208301846116e4565b9392505050565b602080825282518282018190525f918401906040840190835b8181101561178357835180516001600160a01b031684526020908101518185015290930192604090920191600101611750565b509095945050505050565b5f5f6040838503121561179f575f5ffd5b50508035926020909101359150565b5f81518084528060208401602086015e5f602082860101526020601f19601f83011685010191505092915050565b5f602082016020835280845180835260408501915060408160051b8601019250602086015f5b8281101561186a57603f19878603018452815160018060a01b03815116865260ff602082015116602087015260408101516080604088015261184760808801826117ae565b606092830151979092019690965294506020938401939190910190600101611802565b50929695505050505050565b60208152815160208201525f60208301516101e0604084015261189d6102008401826117ae565b90506040840151601f198483030160608501526118ba82826117ae565b91505060608401516118d760808501826001600160a01b03169052565b50608084015160a084015260a084015160c084015260c0840151601f198483030160e085015261190782826117ae565b91505060e0840151610100840152610100840151610120840152610120840151610140840152610140840151601f198483030161016085015261194a82826117ae565b915050610160840151601f198483030161018085015261196a82826117ae565b9150506101808401516101a08401526101a08401516101c08401526101c084015161199a6101e085018215159052565b509392505050565b5f602082840312156119b2575f5ffd5b611730826115fe565b5f602082840312156119cb575f5ffd5b813567ffffffffffffffff8111156119e1575f5ffd5b82016101608185031215611730575f5ffd5b604081525f611a0560408301856116e4565b8281036020840152611a1781856116e4565b95945050505050565b602080825260169082015275141c9bd91d58dd08191bd95cc81b9bdd08195e1a5cdd60521b604082015260600190565b634e487b7160e01b5f52604160045260245ffd5b600181811c90821680611a7857607f821691505b6020821081036106f057634e487b7160e01b5f52602260045260245ffd5b601f821115611add57805f5260205f20601f840160051c81016020851015611abb5750805b601f840160051c820191505b81811015611ada575f8155600101611ac7565b50505b505050565b815167ffffffffffffffff811115611afc57611afc611a50565b611b1081611b0a8454611a64565b84611a96565b6020601f821160018114611b42575f8315611b2b5750848201515b5f19600385901b1c1916600184901b178455611ada565b5f84815260208120601f198516915b82811015611b715787850151825560209485019460019092019101611b51565b5084821015611b8e57868401515f19600387901b60f8161c191681555b50505050600190811b01905550565b60208082526032908201527f4f6e6c792074686520726567697374657265642073656c6c65722063616e207060408201527132b93337b936903a3434b99030b1ba34b7b760711b606082015260800190565b634e487b7160e01b5f52601160045260245ffd5b81810381811115611c1657611c16611bef565b92915050565b634e487b7160e01b5f52603260045260245ffd5b5f5f8335601e19843603018112611c45575f5ffd5b83018035915067ffffffffffffffff821115611c5f575f5ffd5b602001915036819003821315611c73575f5ffd5b9250929050565b80820180821115611c1657611c16611bef565b81835281816020850137505f828201602090810191909152601f909101601f19169091010190565b60a081525f611cc860a08301898b611c8d565b8760208401528660408401528281036060840152611ce7818688611c8d565b9150508260808301529897505050505050505056fea264697066735822122044d8d50e6bf9c7f95c43cafa01506ec9386c6ba2aadcd5fb59f0c28d3d72d75664736f6c634300081c0033",
  "linkReferences": {},
  "deployedLinkReferences": {},
  "immutableReferences": {},
  "inputSourceName": "project/contracts/PriceTracker.sol",
  "buildInfoId": "solc-0_8_28-a90ff4ed15a5dc57c993cbc69b9ee7f84a4dff62"
}