{
  "_format": "hh3-artifact-1",
  "contractName": "PriceTracker",
  "sourceName": "contracts/PriceTracker.sol",
  "abi": [
    {
      "anonymous": false,
      "inputs": [
        {
          "indexed": true,
          "internalType": "uint256",
          "name": "productId",
          "type": "uint256"
        },
        {
          "indexed": true,
          "internalType": "address",
          "name": "seller",
          "type": "address"
        },
        {
          "indexed": false,
          "internalType": "uint256",
          "name": "newPrice",
          "type": "uint256"
        },
        {
          "indexed": false,
          "internalType": "uint256",
          "name": "timestamp",
          "type": "uint256"
        }
      ],
      "name": "PriceUpdated",
      "type": "event"
    },
    {
      "anonymous": false,
      "inputs": [
        {
          "indexed": true,
          "internalType": "uint256",
          "name": "productId",
          "type": "uint256"
        },
        {
          "indexed": true,
          "internalType": "address",
          "name": "seller",
          "type": "address"
        },
        {
          "indexed": false,
          "internalType": "string",
          "name": "name",
          "type": "string"
        },
        {
          "indexed": false,
          "internalType": "uint256",
          "name": "initialPrice",
          "type": "uint256"
        },
        {
          "indexed": false,
          "internalType": "uint256",
          "name": "timestamp",
          "type": "uint256"
        }
      ],
      "name": "ProductRegistered",
      "type": "event"
    },
    {
      "inputs": [],
      "name": "getAllProductIds",
      "outputs": [
        {
          "internalType": "uint256[]",
          "name": "",
          "type": "uint256[]"
        }
      ],
      "stateMutability": "view",
      "type": "function"
    },
    {
      "inputs": [
        {
          "internalType": "uint256",
          "name": "productId",
          "type": "uint256"
        }
      ],
      "name": "getLatestPrice",
      "outputs": [
        {
          "internalType": "uint256",
          "name": "price",
          "type": "uint256"
        },
        {
          "internalType": "uint256",
          "name": "timestamp",
          "type": "uint256"
        }
      ],
      "stateMutability": "view",
      "type": "function"
    },
    {
      "inputs": [
        {
          "internalType": "uint256",
          "name": "productId",
          "type": "uint256"
        }
      ],
      "name": "getPriceHistory",
      "outputs": [
        {
          "internalType": "uint256[]",
          "name": "prices",
          "type": "uint256[]"
        },
        {
          "internalType": "uint256[]",
          "name": "timestamps",
          "type": "uint256[]"
        }
      ],
      "stateMutability": "view",
      "type": "function"
    },
    {
      "inputs": [
        {
          "internalType": "uint256",
          "name": "productId",
          "type": "uint256"
        }
      ],
      "name": "getProduct",
      "outputs": [
        {
          "internalType": "uint256",
          "name": "id",
          "type": "uint256"
        },
        {
          "internalType": "string",
          "name": "name",
          "type": "string"
        },
        {
          "internalType": "string",
          "name": "description",
          "type": "string"
        },
        {
          "internalType": "address",
          "name": "seller",
          "type": "address"
        },
        {
          "internalType": "uint256",
          "name": "createdAt",
          "type": "uint256"
        }
      ],
      "stateMutability": "view",
      "type": "function"
    },
    {
      "inputs": [],
      "name": "getProductCount",
      "outputs": [
        {
          "internalType": "uint256",
          "name": "",
          "type": "uint256"
        }
      ],
      "stateMutability": "view",
      "type": "function"
    },
    {
      "inputs": [
        {
          "internalType": "address",
          "name": "seller",
          "type": "address"
        }
      ],
      "name": "getProductsBySeller",
      "outputs": [
        {
          "internalType": "uint256[]",
          "name": "",
          "type": "uint256[]"
        }
      ],
      "stateMutability": "view",
      "type": "function"
    },
    {
      "inputs": [
        {
          "internalType": "string",
          "name": "name",
          "type": "string"
        },
        {
          "internalType": "string",
          "name": "description",
          "type": "string"
        },
        {
          "internalType": "uint256",
          "name": "initialPrice",
          "type": "uint256"
        }
      ],
      "name": "registerProduct",
      "outputs": [
        {
          "internalType": "uint256",
          "name": "productId",
          "type": "uint256"
        }
      ],
      "stateMutability": "nonpayable",
      "type": "function"
    },
    {
      "inputs": [
        {
          "internalType": "uint256",
          "name": "productId",
          "type": "uint256"
        },
        {
          "internalType": "uint256",
          "name": "newPrice",
          "type": "uint256"
        }
      ],
      "name": "updatePrice",
      "outputs": [],
      "stateMutability": "nonpayable",
      "type": "function"
    }
  ],
  "bytecode": "0x608060405260015f553480156012575f5ffd5b50610e50806100205f395ff3fe608060405234801561000f575f5ffd5b5060043610610085575f3560e01c8063b94fe91711610058578063b94fe917146100e1578063b9db15b414610109578063bacdafe01461012d578063fd1a98a514610140575f5ffd5b80633153a15b146100895780634a348da9146100af578063663c01af146100b757806382367b2d146100cc575b5f5ffd5b61009c610097366004610a3f565b610161565b6040519081526020015b60405180910390f35b60035461009c565b6100bf610422565b6040516100a69190610aec565b6100df6100da366004610b05565b610478565b005b6100f46100ef366004610b25565b610608565b604080519283526020830191909152016100a6565b61011c610117366004610b25565b61068f565b6040516100a6959493929190610b6a565b6100bf61013b366004610bb2565b610828565b61015361014e366004610b25565b610891565b6040516100a6929190610bd8565b5f846101b45760405162461bcd60e51b815260206004820152601c60248201527f50726f64756374206e616d652063616e6e6f7420626520656d7074790000000060448201526064015b60405180910390fd5b5f821161020f5760405162461bcd60e51b8152602060048201526024808201527f496e697469616c207072696365206d75737420626520677265617465722074686044820152630616e20360e41b60648201526084016101ab565b505f805490600190806102228385610c19565b925050819055506040518060c0016040528082815260200187878080601f0160208091040260200160405190810160405280939291908181526020018383808284375f92019190915250505090825250604080516020601f8801819004810282018101909252868152918101919087908790819084018382808284375f9201829052509385525050336020808501919091524260408086019190915260016060909501859052868452848252909220845181559184015191928301916102e9915082610cca565b50604082015160028201906102fe9082610cca565b506060820151600382810180546001600160a01b0319166001600160a01b0390931692909217909155608083015160048084019190915560a0909301516005909201805460ff1916921515929092179091555f83815260026020818152604080842081518083018352898152428185018181528354600181810186559489528689209351970290920195865590519482019490945585548082019096557fc2575a0e9e593c00f959f8c92f12db2869c3395a3b0502d05e2516446f71f85b9095018790553380855295825280842080549586018155845292209092018490555183917f2d7ccb0ae9615b2fa25ff53fd350ce1ec7c82daa84a5bf69a8ec48c93334087c91610411918b918b918991610d85565b60405180910390a395945050505050565b6060600380548060200260200160405190810160405280929190818152602001828054801561046e57602002820191905f5260205f20905b81548152602001906001019080831161045a575b5050505050905090565b5f82815260016020526040902060050154829060ff166104aa5760405162461bcd60e51b81526004016101ab90610dc3565b5f8381526001602052604090206003015483906001600160a01b0316331461052c5760405162461bcd60e51b815260206004820152602f60248201527f4f6e6c792074686520726567697374657265642073656c6c65722063616e207560448201526e70646174652074686520707269636560881b60648201526084016101ab565b5f831161057b5760405162461bcd60e51b815260206004820181905260248201527f4e6577207072696365206d7573742062652067726561746572207468616e203060448201526064016101ab565b5f84815260026020818152604080842081518083018352888152428185018181528354600181810186559489529590972091519490950201928355935191909301559051339186917f592a032e7884ba506196d55a5fc14b6dd3f8f1a70beaf433d32006136a513758916105fa91889190918252602082015260400190565b60405180910390a350505050565b5f818152600160205260408120600501548190839060ff1661063c5760405162461bcd60e51b81526004016101ab90610dc3565b5f8481526002602052604081208054909190829061065c90600190610df3565b8154811061066c5761066c610e06565b905f5260205f2090600202019050805f0154816001015494509450505050915091565b5f81815260016020526040812060050154606090819083908190869060ff166106ca5760405162461bcd60e51b81526004016101ab90610dc3565b5f878152600160208190526040909120805460038201546004830154938301805493949293909260028601926001600160a01b031691849061070b90610c46565b80601f016020809104026020016040519081016040528092919081815260200182805461073790610c46565b80156107825780601f1061075957610100808354040283529160200191610782565b820191905f5260205f20905b81548152906001019060200180831161076557829003601f168201915b5050505050935082805461079590610c46565b80601f01602080910402602001604051908101604052809291908181526020018280546107c190610c46565b801561080c5780601f106107e35761010080835404028352916020019161080c565b820191905f5260205f20905b8154815290600101906020018083116107ef57829003601f168201915b5050505050925096509650965096509650505091939590929450565b6001600160a01b0381165f9081526004602090815260409182902080548351818402810184019094528084526060939283018282801561088557602002820191905f5260205f20905b815481526020019060010190808311610871575b50505050509050919050565b5f818152600160205260409020600501546060908190839060ff166108c85760405162461bcd60e51b81526004016101ab90610dc3565b5f84815260026020526040902080548067ffffffffffffffff8111156108f0576108f0610c32565b604051908082528060200260200182016040528015610919578160200160208202803683370190505b5094508067ffffffffffffffff81111561093557610935610c32565b60405190808252806020026020018201604052801561095e578160200160208202803683370190505b5093505f5b818110156109f15782818154811061097d5761097d610e06565b905f5260205f2090600202015f015486828151811061099e5761099e610e06565b6020026020010181815250508281815481106109bc576109bc610e06565b905f5260205f209060020201600101548582815181106109de576109de610e06565b6020908102919091010152600101610963565b50505050915091565b5f5f83601f840112610a0a575f5ffd5b50813567ffffffffffffffff811115610a21575f5ffd5b602083019150836020828501011115610a38575f5ffd5b9250929050565b5f5f5f5f5f60608688031215610a53575f5ffd5b853567ffffffffffffffff811115610a69575f5ffd5b610a75888289016109fa565b909650945050602086013567ffffffffffffffff811115610a94575f5ffd5b610aa0888289016109fa565b96999598509660400135949350505050565b5f8151808452602084019350602083015f5b82811015610ae2578151865260209586019590910190600101610ac4565b5093949350505050565b602081525f610afe6020830184610ab2565b9392505050565b5f5f60408385031215610b16575f5ffd5b50508035926020909101359150565b5f60208284031215610b35575f5ffd5b5035919050565b5f81518084528060208401602086015e5f602082860101526020601f19601f83011685010191505092915050565b85815260a060208201525f610b8260a0830187610b3c565b8281036040840152610b948187610b3c565b6001600160a01b039590951660608401525050608001529392505050565b5f60208284031215610bc2575f5ffd5b81356001600160a01b0381168114610afe575f5ffd5b604081525f610bea6040830185610ab2565b8281036020840152610bfc8185610ab2565b95945050505050565b634e487b7160e01b5f52601160045260245ffd5b80820180821115610c2c57610c2c610c05565b92915050565b634e487b7160e01b5f52604160045260245ffd5b600181811c90821680610c5a57607f821691505b602082108103610c7857634e487b7160e01b5f52602260045260245ffd5b50919050565b601f821115610cc557805f5260205f20601f840160051c81016020851015610ca35750805b601f840160051c820191505b81811015610cc2575f8155600101610caf565b50505b505050565b815167ffffffffffffffff811115610ce457610ce4610c32565b610cf881610cf28454610c46565b84610c7e565b6020601f821160018114610d2a575f8315610d135750848201515b5f19600385901b1c1916600184901b178455610cc2565b5f84815260208120601f198516915b82811015610d595787850151825560209485019460019092019101610d39565b5084821015610d7657868401515f19600387901b60f8161c191681555b50505050600190811b01905550565b60608152836060820152838560808301375f608085830101525f6080601f19601f870116830101905083602083015282604083015295945050505050565b602080825260169082015275141c9bd91d58dd08191bd95cc81b9bdd08195e1a5cdd60521b604082015260600190565b81810381811115610c2c57610c2c610c05565b634e487b7160e01b5f52603260045260245ffdfea2646970667358221220f952be19fbda87cedaee063eccdaed1409cc5086ef9565b89569d5b23bcb990364736f6c634300081c0033",
  "linkReferences": {},
  "deployedLinkReferences": {},
  "immutableReferences": {},
  "inputSourceName": "project/contracts/PriceTracker.sol",
  "buildInfoId": "solc-0_8_28-008700e16d49e206c2a2cc8fa490a99656734c2e"
}